:08000000803102288731FD2F39
:100F640022000F108F140F158F11080022000F108C
:100F74008F140F118F11080022000F108F100F15FE
:100F84008F11080023008D0121000F108F100F1105
:100F94008F1195130F3024008D0021000D148D1432
:100FA4000D1520000D1CD72FD82FDB2F8731BE271E
:100FB400873120008D1CDF2FE02FE32F8731B227EC
:100FC400873120000D1DE72FE82FEB2F8731B8273D
:100FD40087310F3020000D05F0000F307006031D1F
:100FE400F42FF52FD32F22000F108F100F118F1114
:0C0FF400D32F8031022820008731C42F49
:020000040001F9
:04000E00E23FFF3E90
:00000001FF
